ARM GAS  /tmp/ccKQuDtw.s 			page 1


   1              		.cpu cortex-m4
   2              		.eabi_attribute 27, 1
   3              		.eabi_attribute 28, 1
   4              		.eabi_attribute 20, 1
   5              		.eabi_attribute 21, 1
   6              		.eabi_attribute 23, 3
   7              		.eabi_attribute 24, 1
   8              		.eabi_attribute 25, 1
   9              		.eabi_attribute 26, 1
  10              		.eabi_attribute 30, 1
  11              		.eabi_attribute 34, 1
  12              		.eabi_attribute 18, 4
  13              		.file	"main.c"
  14              		.text
  15              	.Ltext0:
  16              		.cfi_sections	.debug_frame
  17              		.section	.text._write,"ax",%progbits
  18              		.align	1
  19              		.global	_write
  20              		.arch armv7e-m
  21              		.syntax unified
  22              		.thumb
  23              		.thumb_func
  24              		.fpu fpv4-sp-d16
  26              	_write:
  27              	.LVL0:
  28              	.LFB135:
  29              		.file 1 "Core/Src/main.c"
   1:Core/Src/main.c **** /* USER CODE BEGIN Header */
   2:Core/Src/main.c **** /**
   3:Core/Src/main.c ****   ******************************************************************************
   4:Core/Src/main.c ****   * @file           : main.c
   5:Core/Src/main.c ****   * @brief          : Main program body
   6:Core/Src/main.c ****   ******************************************************************************
   7:Core/Src/main.c ****   * @attention
   8:Core/Src/main.c ****   *
   9:Core/Src/main.c ****   * <h2><center>&copy; Copyright (c) 2022 STMicroelectronics.
  10:Core/Src/main.c ****   * All rights reserved.</center></h2>
  11:Core/Src/main.c ****   *
  12:Core/Src/main.c ****   * This software component is licensed by ST under BSD 3-Clause license,
  13:Core/Src/main.c ****   * the "License"; You may not use this file except in compliance with the
  14:Core/Src/main.c ****   * License. You may obtain a copy of the License at:
  15:Core/Src/main.c ****   *                        opensource.org/licenses/BSD-3-Clause
  16:Core/Src/main.c ****   *
  17:Core/Src/main.c ****   ******************************************************************************
  18:Core/Src/main.c ****   */
  19:Core/Src/main.c **** /* USER CODE END Header */
  20:Core/Src/main.c **** /* Includes ------------------------------------------------------------------*/
  21:Core/Src/main.c **** #include "main.h"
  22:Core/Src/main.c **** #include "usart.h"
  23:Core/Src/main.c **** #include "gpio.h"
  24:Core/Src/main.c **** 
  25:Core/Src/main.c **** /* Private includes ----------------------------------------------------------*/
  26:Core/Src/main.c **** /* USER CODE BEGIN Includes */
  27:Core/Src/main.c **** #include "stdio.h"
  28:Core/Src/main.c **** 
  29:Core/Src/main.c **** /* USER CODE END Includes */
ARM GAS  /tmp/ccKQuDtw.s 			page 2


  30:Core/Src/main.c **** 
  31:Core/Src/main.c **** /* Private typedef -----------------------------------------------------------*/
  32:Core/Src/main.c **** /* USER CODE BEGIN PTD */
  33:Core/Src/main.c **** 
  34:Core/Src/main.c **** /* USER CODE END PTD */
  35:Core/Src/main.c **** 
  36:Core/Src/main.c **** /* Private define ------------------------------------------------------------*/
  37:Core/Src/main.c **** /* USER CODE BEGIN PD */
  38:Core/Src/main.c **** /* USER CODE END PD */
  39:Core/Src/main.c **** 
  40:Core/Src/main.c **** /* Private macro -------------------------------------------------------------*/
  41:Core/Src/main.c **** /* USER CODE BEGIN PM */
  42:Core/Src/main.c **** 
  43:Core/Src/main.c **** /* USER CODE END PM */
  44:Core/Src/main.c **** 
  45:Core/Src/main.c **** /* Private variables ---------------------------------------------------------*/
  46:Core/Src/main.c **** 
  47:Core/Src/main.c **** /* USER CODE BEGIN PV */
  48:Core/Src/main.c **** 
  49:Core/Src/main.c **** /* USER CODE END PV */
  50:Core/Src/main.c **** 
  51:Core/Src/main.c **** /* Private function prototypes -----------------------------------------------*/
  52:Core/Src/main.c **** void SystemClock_Config(void);
  53:Core/Src/main.c **** /* USER CODE BEGIN PFP */
  54:Core/Src/main.c **** 
  55:Core/Src/main.c **** /* USER CODE END PFP */
  56:Core/Src/main.c **** 
  57:Core/Src/main.c **** /* Private user code ---------------------------------------------------------*/
  58:Core/Src/main.c **** /* USER CODE BEGIN 0 */
  59:Core/Src/main.c **** 
  60:Core/Src/main.c **** /* USER CODE END 0 */
  61:Core/Src/main.c **** 
  62:Core/Src/main.c **** /**
  63:Core/Src/main.c ****   * @brief  The application entry point.
  64:Core/Src/main.c ****   * @retval int
  65:Core/Src/main.c ****   */
  66:Core/Src/main.c **** int main(void)
  67:Core/Src/main.c **** {
  68:Core/Src/main.c ****   /* USER CODE BEGIN 1 */
  69:Core/Src/main.c **** int i=0;
  70:Core/Src/main.c ****   /* USER CODE END 1 */
  71:Core/Src/main.c **** 
  72:Core/Src/main.c ****   /* MCU Configuration--------------------------------------------------------*/
  73:Core/Src/main.c **** 
  74:Core/Src/main.c ****   /* Reset of all peripherals, Initializes the Flash interface and the Systick. */
  75:Core/Src/main.c ****   HAL_Init();
  76:Core/Src/main.c **** 
  77:Core/Src/main.c ****   /* USER CODE BEGIN Init */
  78:Core/Src/main.c **** 
  79:Core/Src/main.c ****   /* USER CODE END Init */
  80:Core/Src/main.c **** 
  81:Core/Src/main.c ****   /* Configure the system clock */
  82:Core/Src/main.c ****   SystemClock_Config();
  83:Core/Src/main.c **** 
  84:Core/Src/main.c ****   /* USER CODE BEGIN SysInit */
  85:Core/Src/main.c **** 
  86:Core/Src/main.c ****   /* USER CODE END SysInit */
ARM GAS  /tmp/ccKQuDtw.s 			page 3


  87:Core/Src/main.c **** 
  88:Core/Src/main.c ****   /* Initialize all configured peripherals */
  89:Core/Src/main.c ****   MX_GPIO_Init();
  90:Core/Src/main.c ****   MX_USART1_UART_Init();
  91:Core/Src/main.c ****   /* USER CODE BEGIN 2 */
  92:Core/Src/main.c **** printf("hello world \n");
  93:Core/Src/main.c ****     HAL_GPIO_TogglePin(GPIOG, GPIO_PIN_13);
  94:Core/Src/main.c ****     HAL_GPIO_TogglePin(GPIOG, GPIO_PIN_14);
  95:Core/Src/main.c ****   /* USER CODE END 2 */
  96:Core/Src/main.c **** 
  97:Core/Src/main.c ****   /* Infinite loop */
  98:Core/Src/main.c ****   /* USER CODE BEGIN WHILE */
  99:Core/Src/main.c ****   while (1)
 100:Core/Src/main.c ****   {
 101:Core/Src/main.c ****     /* USER CODE END WHILE */
 102:Core/Src/main.c **** 
 103:Core/Src/main.c ****     /* USER CODE BEGIN 3 */
 104:Core/Src/main.c **** printf("==%d \n" ,i);
 105:Core/Src/main.c **** 
 106:Core/Src/main.c ****   // if(i>=3000)
 107:Core/Src/main.c ****   // {
 108:Core/Src/main.c ****     HAL_GPIO_TogglePin(GPIOG, GPIO_PIN_13);
 109:Core/Src/main.c ****     HAL_GPIO_TogglePin(GPIOG, GPIO_PIN_14);
 110:Core/Src/main.c ****     HAL_Delay(100);
 111:Core/Src/main.c **** 
 112:Core/Src/main.c ****     // i=0;
 113:Core/Src/main.c ****   // }
 114:Core/Src/main.c ****   // i++;
 115:Core/Src/main.c ****   }
 116:Core/Src/main.c ****   /* USER CODE END 3 */
 117:Core/Src/main.c **** }
 118:Core/Src/main.c **** 
 119:Core/Src/main.c **** /**
 120:Core/Src/main.c ****   * @brief System Clock Configuration
 121:Core/Src/main.c ****   * @retval None
 122:Core/Src/main.c ****   */
 123:Core/Src/main.c **** void SystemClock_Config(void)
 124:Core/Src/main.c **** {
 125:Core/Src/main.c ****   RCC_OscInitTypeDef RCC_OscInitStruct = {0};
 126:Core/Src/main.c ****   RCC_ClkInitTypeDef RCC_ClkInitStruct = {0};
 127:Core/Src/main.c **** 
 128:Core/Src/main.c ****   /** Configure the main internal regulator output voltage
 129:Core/Src/main.c ****   */
 130:Core/Src/main.c ****   __HAL_RCC_PWR_CLK_ENABLE();
 131:Core/Src/main.c ****   __HAL_PWR_VOLTAGESCALING_CONFIG(PWR_REGULATOR_VOLTAGE_SCALE1);
 132:Core/Src/main.c ****   /** Initializes the RCC Oscillators according to the specified parameters
 133:Core/Src/main.c ****   * in the RCC_OscInitTypeDef structure.
 134:Core/Src/main.c ****   */
 135:Core/Src/main.c ****   RCC_OscInitStruct.OscillatorType = RCC_OSCILLATORTYPE_HSI;
 136:Core/Src/main.c ****   RCC_OscInitStruct.HSIState = RCC_HSI_ON;
 137:Core/Src/main.c ****   RCC_OscInitStruct.HSICalibrationValue = RCC_HSICALIBRATION_DEFAULT;
 138:Core/Src/main.c ****   RCC_OscInitStruct.PLL.PLLState = RCC_PLL_ON;
 139:Core/Src/main.c ****   RCC_OscInitStruct.PLL.PLLSource = RCC_PLLSOURCE_HSI;
 140:Core/Src/main.c ****   RCC_OscInitStruct.PLL.PLLM = 8;
 141:Core/Src/main.c ****   RCC_OscInitStruct.PLL.PLLN = 168;
 142:Core/Src/main.c ****   RCC_OscInitStruct.PLL.PLLP = RCC_PLLP_DIV2;
 143:Core/Src/main.c ****   RCC_OscInitStruct.PLL.PLLQ = 4;
ARM GAS  /tmp/ccKQuDtw.s 			page 4


 144:Core/Src/main.c ****   if (HAL_RCC_OscConfig(&RCC_OscInitStruct) != HAL_OK)
 145:Core/Src/main.c ****   {
 146:Core/Src/main.c ****     Error_Handler();
 147:Core/Src/main.c ****   }
 148:Core/Src/main.c ****   /** Initializes the CPU, AHB and APB buses clocks
 149:Core/Src/main.c ****   */
 150:Core/Src/main.c ****   RCC_ClkInitStruct.ClockType = RCC_CLOCKTYPE_HCLK|RCC_CLOCKTYPE_SYSCLK
 151:Core/Src/main.c ****                               |RCC_CLOCKTYPE_PCLK1|RCC_CLOCKTYPE_PCLK2;
 152:Core/Src/main.c ****   RCC_ClkInitStruct.SYSCLKSource = RCC_SYSCLKSOURCE_PLLCLK;
 153:Core/Src/main.c ****   RCC_ClkInitStruct.AHBCLKDivider = RCC_SYSCLK_DIV1;
 154:Core/Src/main.c ****   RCC_ClkInitStruct.APB1CLKDivider = RCC_HCLK_DIV4;
 155:Core/Src/main.c ****   RCC_ClkInitStruct.APB2CLKDivider = RCC_HCLK_DIV2;
 156:Core/Src/main.c **** 
 157:Core/Src/main.c ****   if (HAL_RCC_ClockConfig(&RCC_ClkInitStruct, FLASH_LATENCY_5) != HAL_OK)
 158:Core/Src/main.c ****   {
 159:Core/Src/main.c ****     Error_Handler();
 160:Core/Src/main.c ****   }
 161:Core/Src/main.c **** }
 162:Core/Src/main.c **** 
 163:Core/Src/main.c **** /* USER CODE BEGIN 4 */
 164:Core/Src/main.c **** __attribute__((used)) int _write(int fd, char *ptr, int len)
 165:Core/Src/main.c **** {
  30              		.loc 1 165 1 view -0
  31              		.cfi_startproc
  32              		@ args = 0, pretend = 0, frame = 0
  33              		@ frame_needed = 0, uses_anonymous_args = 0
  34              		.loc 1 165 1 is_stmt 0 view .LVU1
  35 0000 10B5     		push	{r4, lr}
  36              	.LCFI0:
  37              		.cfi_def_cfa_offset 8
  38              		.cfi_offset 4, -8
  39              		.cfi_offset 14, -4
  40 0002 1446     		mov	r4, r2
 166:Core/Src/main.c ****     (void)HAL_UART_Transmit(&huart1, (uint8_t *)ptr, len, 0xFFFF);
  41              		.loc 1 166 5 is_stmt 1 view .LVU2
  42              		.loc 1 166 11 is_stmt 0 view .LVU3
  43 0004 4FF6FF73 		movw	r3, #65535
  44 0008 92B2     		uxth	r2, r2
  45              	.LVL1:
  46              		.loc 1 166 11 view .LVU4
  47 000a 0248     		ldr	r0, .L3
  48              	.LVL2:
  49              		.loc 1 166 11 view .LVU5
  50 000c FFF7FEFF 		bl	HAL_UART_Transmit
  51              	.LVL3:
 167:Core/Src/main.c ****     return len;
  52              		.loc 1 167 5 is_stmt 1 view .LVU6
 168:Core/Src/main.c **** }
  53              		.loc 1 168 1 is_stmt 0 view .LVU7
  54 0010 2046     		mov	r0, r4
  55 0012 10BD     		pop	{r4, pc}
  56              	.LVL4:
  57              	.L4:
  58              		.loc 1 168 1 view .LVU8
  59              		.align	2
  60              	.L3:
  61 0014 00000000 		.word	huart1
ARM GAS  /tmp/ccKQuDtw.s 			page 5


  62              		.cfi_endproc
  63              	.LFE135:
  65              		.section	.text.Error_Handler,"ax",%progbits
  66              		.align	1
  67              		.global	Error_Handler
  68              		.syntax unified
  69              		.thumb
  70              		.thumb_func
  71              		.fpu fpv4-sp-d16
  73              	Error_Handler:
  74              	.LFB136:
 169:Core/Src/main.c **** /* USER CODE END 4 */
 170:Core/Src/main.c **** 
 171:Core/Src/main.c **** /**
 172:Core/Src/main.c ****   * @brief  This function is executed in case of error occurrence.
 173:Core/Src/main.c ****   * @retval None
 174:Core/Src/main.c ****   */
 175:Core/Src/main.c **** void Error_Handler(void)
 176:Core/Src/main.c **** {
  75              		.loc 1 176 1 is_stmt 1 view -0
  76              		.cfi_startproc
  77              		@ Volatile: function does not return.
  78              		@ args = 0, pretend = 0, frame = 0
  79              		@ frame_needed = 0, uses_anonymous_args = 0
  80              		@ link register save eliminated.
 177:Core/Src/main.c ****   /* USER CODE BEGIN Error_Handler_Debug */
 178:Core/Src/main.c ****   /* User can add his own implementation to report the HAL error return state */
 179:Core/Src/main.c ****   __disable_irq();
  81              		.loc 1 179 3 view .LVU10
  82              	.LBB4:
  83              	.LBI4:
  84              		.file 2 "Drivers/CMSIS/Include/cmsis_gcc.h"
   1:Drivers/CMSIS/Include/cmsis_gcc.h **** /**************************************************************************//**
   2:Drivers/CMSIS/Include/cmsis_gcc.h ****  * @file     cmsis_gcc.h
   3:Drivers/CMSIS/Include/cmsis_gcc.h ****  * @brief    CMSIS compiler GCC header file
   4:Drivers/CMSIS/Include/cmsis_gcc.h ****  * @version  V5.0.4
   5:Drivers/CMSIS/Include/cmsis_gcc.h ****  * @date     09. April 2018
   6:Drivers/CMSIS/Include/cmsis_gcc.h ****  ******************************************************************************/
   7:Drivers/CMSIS/Include/cmsis_gcc.h **** /*
   8:Drivers/CMSIS/Include/cmsis_gcc.h ****  * Copyright (c) 2009-2018 Arm Limited. All rights reserved.
   9:Drivers/CMSIS/Include/cmsis_gcc.h ****  *
  10:Drivers/CMSIS/Include/cmsis_gcc.h ****  * SPDX-License-Identifier: Apache-2.0
  11:Drivers/CMSIS/Include/cmsis_gcc.h ****  *
  12:Drivers/CMSIS/Include/cmsis_gcc.h ****  * Licensed under the Apache License, Version 2.0 (the License); you may
  13:Drivers/CMSIS/Include/cmsis_gcc.h ****  * not use this file except in compliance with the License.
  14:Drivers/CMSIS/Include/cmsis_gcc.h ****  * You may obtain a copy of the License at
  15:Drivers/CMSIS/Include/cmsis_gcc.h ****  *
  16:Drivers/CMSIS/Include/cmsis_gcc.h ****  * www.apache.org/licenses/LICENSE-2.0
  17:Drivers/CMSIS/Include/cmsis_gcc.h ****  *
  18:Drivers/CMSIS/Include/cmsis_gcc.h ****  * Unless required by applicable law or agreed to in writing, software
  19:Drivers/CMSIS/Include/cmsis_gcc.h ****  * distributed under the License is distributed on an AS IS BASIS, WITHOUT
  20:Drivers/CMSIS/Include/cmsis_gcc.h ****  * WARRANTIES OR CONDITIONS OF ANY KIND, either express or implied.
  21:Drivers/CMSIS/Include/cmsis_gcc.h ****  * See the License for the specific language governing permissions and
  22:Drivers/CMSIS/Include/cmsis_gcc.h ****  * limitations under the License.
  23:Drivers/CMSIS/Include/cmsis_gcc.h ****  */
  24:Drivers/CMSIS/Include/cmsis_gcc.h **** 
  25:Drivers/CMSIS/Include/cmsis_gcc.h **** #ifndef __CMSIS_GCC_H
ARM GAS  /tmp/ccKQuDtw.s 			page 6


  26:Drivers/CMSIS/Include/cmsis_gcc.h **** #define __CMSIS_GCC_H
  27:Drivers/CMSIS/Include/cmsis_gcc.h **** 
  28:Drivers/CMSIS/Include/cmsis_gcc.h **** /* ignore some GCC warnings */
  29:Drivers/CMSIS/Include/cmsis_gcc.h **** #pragma GCC diagnostic push
  30:Drivers/CMSIS/Include/cmsis_gcc.h **** #pragma GCC diagnostic ignored "-Wsign-conversion"
  31:Drivers/CMSIS/Include/cmsis_gcc.h **** #pragma GCC diagnostic ignored "-Wconversion"
  32:Drivers/CMSIS/Include/cmsis_gcc.h **** #pragma GCC diagnostic ignored "-Wunused-parameter"
  33:Drivers/CMSIS/Include/cmsis_gcc.h **** 
  34:Drivers/CMSIS/Include/cmsis_gcc.h **** /* Fallback for __has_builtin */
  35:Drivers/CMSIS/Include/cmsis_gcc.h **** #ifndef __has_builtin
  36:Drivers/CMSIS/Include/cmsis_gcc.h ****   #define __has_builtin(x) (0)
  37:Drivers/CMSIS/Include/cmsis_gcc.h **** #endif
  38:Drivers/CMSIS/Include/cmsis_gcc.h **** 
  39:Drivers/CMSIS/Include/cmsis_gcc.h **** /* CMSIS compiler specific defines */
  40:Drivers/CMSIS/Include/cmsis_gcc.h **** #ifndef   __ASM
  41:Drivers/CMSIS/Include/cmsis_gcc.h ****   #define __ASM                                  __asm
  42:Drivers/CMSIS/Include/cmsis_gcc.h **** #endif
  43:Drivers/CMSIS/Include/cmsis_gcc.h **** #ifndef   __INLINE
  44:Drivers/CMSIS/Include/cmsis_gcc.h ****   #define __INLINE                               inline
  45:Drivers/CMSIS/Include/cmsis_gcc.h **** #endif
  46:Drivers/CMSIS/Include/cmsis_gcc.h **** #ifndef   __STATIC_INLINE
  47:Drivers/CMSIS/Include/cmsis_gcc.h ****   #define __STATIC_INLINE                        static inline
  48:Drivers/CMSIS/Include/cmsis_gcc.h **** #endif
  49:Drivers/CMSIS/Include/cmsis_gcc.h **** #ifndef   __STATIC_FORCEINLINE                 
  50:Drivers/CMSIS/Include/cmsis_gcc.h ****   #define __STATIC_FORCEINLINE                   __attribute__((always_inline)) static inline
  51:Drivers/CMSIS/Include/cmsis_gcc.h **** #endif                                           
  52:Drivers/CMSIS/Include/cmsis_gcc.h **** #ifndef   __NO_RETURN
  53:Drivers/CMSIS/Include/cmsis_gcc.h ****   #define __NO_RETURN                            __attribute__((__noreturn__))
  54:Drivers/CMSIS/Include/cmsis_gcc.h **** #endif
  55:Drivers/CMSIS/Include/cmsis_gcc.h **** #ifndef   __USED
  56:Drivers/CMSIS/Include/cmsis_gcc.h ****   #define __USED                                 __attribute__((used))
  57:Drivers/CMSIS/Include/cmsis_gcc.h **** #endif
  58:Drivers/CMSIS/Include/cmsis_gcc.h **** #ifndef   __WEAK
  59:Drivers/CMSIS/Include/cmsis_gcc.h ****   #define __WEAK                                 __attribute__((weak))
  60:Drivers/CMSIS/Include/cmsis_gcc.h **** #endif
  61:Drivers/CMSIS/Include/cmsis_gcc.h **** #ifndef   __PACKED
  62:Drivers/CMSIS/Include/cmsis_gcc.h ****   #define __PACKED                               __attribute__((packed, aligned(1)))
  63:Drivers/CMSIS/Include/cmsis_gcc.h **** #endif
  64:Drivers/CMSIS/Include/cmsis_gcc.h **** #ifndef   __PACKED_STRUCT
  65:Drivers/CMSIS/Include/cmsis_gcc.h ****   #define __PACKED_STRUCT                        struct __attribute__((packed, aligned(1)))
  66:Drivers/CMSIS/Include/cmsis_gcc.h **** #endif
  67:Drivers/CMSIS/Include/cmsis_gcc.h **** #ifndef   __PACKED_UNION
  68:Drivers/CMSIS/Include/cmsis_gcc.h ****   #define __PACKED_UNION                         union __attribute__((packed, aligned(1)))
  69:Drivers/CMSIS/Include/cmsis_gcc.h **** #endif
  70:Drivers/CMSIS/Include/cmsis_gcc.h **** #ifndef   __UNALIGNED_UINT32        /* deprecated */
  71:Drivers/CMSIS/Include/cmsis_gcc.h ****   #pragma GCC diagnostic push
  72:Drivers/CMSIS/Include/cmsis_gcc.h ****   #pragma GCC diagnostic ignored "-Wpacked"
  73:Drivers/CMSIS/Include/cmsis_gcc.h ****   #pragma GCC diagnostic ignored "-Wattributes"
  74:Drivers/CMSIS/Include/cmsis_gcc.h ****   struct __attribute__((packed)) T_UINT32 { uint32_t v; };
  75:Drivers/CMSIS/Include/cmsis_gcc.h ****   #pragma GCC diagnostic pop
  76:Drivers/CMSIS/Include/cmsis_gcc.h ****   #define __UNALIGNED_UINT32(x)                  (((struct T_UINT32 *)(x))->v)
  77:Drivers/CMSIS/Include/cmsis_gcc.h **** #endif
  78:Drivers/CMSIS/Include/cmsis_gcc.h **** #ifndef   __UNALIGNED_UINT16_WRITE
  79:Drivers/CMSIS/Include/cmsis_gcc.h ****   #pragma GCC diagnostic push
  80:Drivers/CMSIS/Include/cmsis_gcc.h ****   #pragma GCC diagnostic ignored "-Wpacked"
  81:Drivers/CMSIS/Include/cmsis_gcc.h ****   #pragma GCC diagnostic ignored "-Wattributes"
  82:Drivers/CMSIS/Include/cmsis_gcc.h ****   __PACKED_STRUCT T_UINT16_WRITE { uint16_t v; };
ARM GAS  /tmp/ccKQuDtw.s 			page 7


  83:Drivers/CMSIS/Include/cmsis_gcc.h ****   #pragma GCC diagnostic pop
  84:Drivers/CMSIS/Include/cmsis_gcc.h ****   #define __UNALIGNED_UINT16_WRITE(addr, val)    (void)((((struct T_UINT16_WRITE *)(void *)(addr))-
  85:Drivers/CMSIS/Include/cmsis_gcc.h **** #endif
  86:Drivers/CMSIS/Include/cmsis_gcc.h **** #ifndef   __UNALIGNED_UINT16_READ
  87:Drivers/CMSIS/Include/cmsis_gcc.h ****   #pragma GCC diagnostic push
  88:Drivers/CMSIS/Include/cmsis_gcc.h ****   #pragma GCC diagnostic ignored "-Wpacked"
  89:Drivers/CMSIS/Include/cmsis_gcc.h ****   #pragma GCC diagnostic ignored "-Wattributes"
  90:Drivers/CMSIS/Include/cmsis_gcc.h ****   __PACKED_STRUCT T_UINT16_READ { uint16_t v; };
  91:Drivers/CMSIS/Include/cmsis_gcc.h ****   #pragma GCC diagnostic pop
  92:Drivers/CMSIS/Include/cmsis_gcc.h ****   #define __UNALIGNED_UINT16_READ(addr)          (((const struct T_UINT16_READ *)(const void *)(add
  93:Drivers/CMSIS/Include/cmsis_gcc.h **** #endif
  94:Drivers/CMSIS/Include/cmsis_gcc.h **** #ifndef   __UNALIGNED_UINT32_WRITE
  95:Drivers/CMSIS/Include/cmsis_gcc.h ****   #pragma GCC diagnostic push
  96:Drivers/CMSIS/Include/cmsis_gcc.h ****   #pragma GCC diagnostic ignored "-Wpacked"
  97:Drivers/CMSIS/Include/cmsis_gcc.h ****   #pragma GCC diagnostic ignored "-Wattributes"
  98:Drivers/CMSIS/Include/cmsis_gcc.h ****   __PACKED_STRUCT T_UINT32_WRITE { uint32_t v; };
  99:Drivers/CMSIS/Include/cmsis_gcc.h ****   #pragma GCC diagnostic pop
 100:Drivers/CMSIS/Include/cmsis_gcc.h ****   #define __UNALIGNED_UINT32_WRITE(addr, val)    (void)((((struct T_UINT32_WRITE *)(void *)(addr))-
 101:Drivers/CMSIS/Include/cmsis_gcc.h **** #endif
 102:Drivers/CMSIS/Include/cmsis_gcc.h **** #ifndef   __UNALIGNED_UINT32_READ
 103:Drivers/CMSIS/Include/cmsis_gcc.h ****   #pragma GCC diagnostic push
 104:Drivers/CMSIS/Include/cmsis_gcc.h ****   #pragma GCC diagnostic ignored "-Wpacked"
 105:Drivers/CMSIS/Include/cmsis_gcc.h ****   #pragma GCC diagnostic ignored "-Wattributes"
 106:Drivers/CMSIS/Include/cmsis_gcc.h ****   __PACKED_STRUCT T_UINT32_READ { uint32_t v; };
 107:Drivers/CMSIS/Include/cmsis_gcc.h ****   #pragma GCC diagnostic pop
 108:Drivers/CMSIS/Include/cmsis_gcc.h ****   #define __UNALIGNED_UINT32_READ(addr)          (((const struct T_UINT32_READ *)(const void *)(add
 109:Drivers/CMSIS/Include/cmsis_gcc.h **** #endif
 110:Drivers/CMSIS/Include/cmsis_gcc.h **** #ifndef   __ALIGNED
 111:Drivers/CMSIS/Include/cmsis_gcc.h ****   #define __ALIGNED(x)                           __attribute__((aligned(x)))
 112:Drivers/CMSIS/Include/cmsis_gcc.h **** #endif
 113:Drivers/CMSIS/Include/cmsis_gcc.h **** #ifndef   __RESTRICT
 114:Drivers/CMSIS/Include/cmsis_gcc.h ****   #define __RESTRICT                             __restrict
 115:Drivers/CMSIS/Include/cmsis_gcc.h **** #endif
 116:Drivers/CMSIS/Include/cmsis_gcc.h **** 
 117:Drivers/CMSIS/Include/cmsis_gcc.h **** 
 118:Drivers/CMSIS/Include/cmsis_gcc.h **** /* ###########################  Core Function Access  ########################### */
 119:Drivers/CMSIS/Include/cmsis_gcc.h **** /** \ingroup  CMSIS_Core_FunctionInterface
 120:Drivers/CMSIS/Include/cmsis_gcc.h ****     \defgroup CMSIS_Core_RegAccFunctions CMSIS Core Register Access Functions
 121:Drivers/CMSIS/Include/cmsis_gcc.h ****   @{
 122:Drivers/CMSIS/Include/cmsis_gcc.h ****  */
 123:Drivers/CMSIS/Include/cmsis_gcc.h **** 
 124:Drivers/CMSIS/Include/cmsis_gcc.h **** /**
 125:Drivers/CMSIS/Include/cmsis_gcc.h ****   \brief   Enable IRQ Interrupts
 126:Drivers/CMSIS/Include/cmsis_gcc.h ****   \details Enables IRQ interrupts by clearing the I-bit in the CPSR.
 127:Drivers/CMSIS/Include/cmsis_gcc.h ****            Can only be executed in Privileged modes.
 128:Drivers/CMSIS/Include/cmsis_gcc.h ****  */
 129:Drivers/CMSIS/Include/cmsis_gcc.h **** __STATIC_FORCEINLINE void __enable_irq(void)
 130:Drivers/CMSIS/Include/cmsis_gcc.h **** {
 131:Drivers/CMSIS/Include/cmsis_gcc.h ****   __ASM volatile ("cpsie i" : : : "memory");
 132:Drivers/CMSIS/Include/cmsis_gcc.h **** }
 133:Drivers/CMSIS/Include/cmsis_gcc.h **** 
 134:Drivers/CMSIS/Include/cmsis_gcc.h **** 
 135:Drivers/CMSIS/Include/cmsis_gcc.h **** /**
 136:Drivers/CMSIS/Include/cmsis_gcc.h ****   \brief   Disable IRQ Interrupts
 137:Drivers/CMSIS/Include/cmsis_gcc.h ****   \details Disables IRQ interrupts by setting the I-bit in the CPSR.
 138:Drivers/CMSIS/Include/cmsis_gcc.h ****            Can only be executed in Privileged modes.
 139:Drivers/CMSIS/Include/cmsis_gcc.h ****  */
ARM GAS  /tmp/ccKQuDtw.s 			page 8


 140:Drivers/CMSIS/Include/cmsis_gcc.h **** __STATIC_FORCEINLINE void __disable_irq(void)
  85              		.loc 2 140 27 view .LVU11
  86              	.LBB5:
 141:Drivers/CMSIS/Include/cmsis_gcc.h **** {
 142:Drivers/CMSIS/Include/cmsis_gcc.h ****   __ASM volatile ("cpsid i" : : : "memory");
  87              		.loc 2 142 3 view .LVU12
  88              		.syntax unified
  89              	@ 142 "Drivers/CMSIS/Include/cmsis_gcc.h" 1
  90 0000 72B6     		cpsid i
  91              	@ 0 "" 2
  92              		.thumb
  93              		.syntax unified
  94              	.L6:
  95              	.LBE5:
  96              	.LBE4:
 180:Core/Src/main.c ****   while (1)
  97              		.loc 1 180 3 discriminator 1 view .LVU13
 181:Core/Src/main.c ****   {
 182:Core/Src/main.c ****   }
  98              		.loc 1 182 3 discriminator 1 view .LVU14
 180:Core/Src/main.c ****   while (1)
  99              		.loc 1 180 9 discriminator 1 view .LVU15
 100 0002 FEE7     		b	.L6
 101              		.cfi_endproc
 102              	.LFE136:
 104              		.section	.text.SystemClock_Config,"ax",%progbits
 105              		.align	1
 106              		.global	SystemClock_Config
 107              		.syntax unified
 108              		.thumb
 109              		.thumb_func
 110              		.fpu fpv4-sp-d16
 112              	SystemClock_Config:
 113              	.LFB134:
 124:Core/Src/main.c ****   RCC_OscInitTypeDef RCC_OscInitStruct = {0};
 114              		.loc 1 124 1 view -0
 115              		.cfi_startproc
 116              		@ args = 0, pretend = 0, frame = 80
 117              		@ frame_needed = 0, uses_anonymous_args = 0
 118 0000 00B5     		push	{lr}
 119              	.LCFI1:
 120              		.cfi_def_cfa_offset 4
 121              		.cfi_offset 14, -4
 122 0002 95B0     		sub	sp, sp, #84
 123              	.LCFI2:
 124              		.cfi_def_cfa_offset 88
 125:Core/Src/main.c ****   RCC_ClkInitTypeDef RCC_ClkInitStruct = {0};
 125              		.loc 1 125 3 view .LVU17
 125:Core/Src/main.c ****   RCC_ClkInitTypeDef RCC_ClkInitStruct = {0};
 126              		.loc 1 125 22 is_stmt 0 view .LVU18
 127 0004 3022     		movs	r2, #48
 128 0006 0021     		movs	r1, #0
 129 0008 08A8     		add	r0, sp, #32
 130 000a FFF7FEFF 		bl	memset
 131              	.LVL5:
 126:Core/Src/main.c **** 
 132              		.loc 1 126 3 is_stmt 1 view .LVU19
ARM GAS  /tmp/ccKQuDtw.s 			page 9


 126:Core/Src/main.c **** 
 133              		.loc 1 126 22 is_stmt 0 view .LVU20
 134 000e 0023     		movs	r3, #0
 135 0010 0393     		str	r3, [sp, #12]
 136 0012 0493     		str	r3, [sp, #16]
 137 0014 0593     		str	r3, [sp, #20]
 138 0016 0693     		str	r3, [sp, #24]
 139 0018 0793     		str	r3, [sp, #28]
 130:Core/Src/main.c ****   __HAL_PWR_VOLTAGESCALING_CONFIG(PWR_REGULATOR_VOLTAGE_SCALE1);
 140              		.loc 1 130 3 is_stmt 1 view .LVU21
 141              	.LBB6:
 130:Core/Src/main.c ****   __HAL_PWR_VOLTAGESCALING_CONFIG(PWR_REGULATOR_VOLTAGE_SCALE1);
 142              		.loc 1 130 3 view .LVU22
 143 001a 0193     		str	r3, [sp, #4]
 130:Core/Src/main.c ****   __HAL_PWR_VOLTAGESCALING_CONFIG(PWR_REGULATOR_VOLTAGE_SCALE1);
 144              		.loc 1 130 3 view .LVU23
 145 001c 1F4A     		ldr	r2, .L13
 146 001e 116C     		ldr	r1, [r2, #64]
 147 0020 41F08051 		orr	r1, r1, #268435456
 148 0024 1164     		str	r1, [r2, #64]
 130:Core/Src/main.c ****   __HAL_PWR_VOLTAGESCALING_CONFIG(PWR_REGULATOR_VOLTAGE_SCALE1);
 149              		.loc 1 130 3 view .LVU24
 150 0026 126C     		ldr	r2, [r2, #64]
 151 0028 02F08052 		and	r2, r2, #268435456
 152 002c 0192     		str	r2, [sp, #4]
 130:Core/Src/main.c ****   __HAL_PWR_VOLTAGESCALING_CONFIG(PWR_REGULATOR_VOLTAGE_SCALE1);
 153              		.loc 1 130 3 view .LVU25
 154 002e 019A     		ldr	r2, [sp, #4]
 155              	.LBE6:
 130:Core/Src/main.c ****   __HAL_PWR_VOLTAGESCALING_CONFIG(PWR_REGULATOR_VOLTAGE_SCALE1);
 156              		.loc 1 130 3 view .LVU26
 131:Core/Src/main.c ****   /** Initializes the RCC Oscillators according to the specified parameters
 157              		.loc 1 131 3 view .LVU27
 158              	.LBB7:
 131:Core/Src/main.c ****   /** Initializes the RCC Oscillators according to the specified parameters
 159              		.loc 1 131 3 view .LVU28
 160 0030 0293     		str	r3, [sp, #8]
 131:Core/Src/main.c ****   /** Initializes the RCC Oscillators according to the specified parameters
 161              		.loc 1 131 3 view .LVU29
 162 0032 1B4A     		ldr	r2, .L13+4
 163 0034 1168     		ldr	r1, [r2]
 164 0036 41F44041 		orr	r1, r1, #49152
 165 003a 1160     		str	r1, [r2]
 131:Core/Src/main.c ****   /** Initializes the RCC Oscillators according to the specified parameters
 166              		.loc 1 131 3 view .LVU30
 167 003c 1268     		ldr	r2, [r2]
 168 003e 02F44042 		and	r2, r2, #49152
 169 0042 0292     		str	r2, [sp, #8]
 131:Core/Src/main.c ****   /** Initializes the RCC Oscillators according to the specified parameters
 170              		.loc 1 131 3 view .LVU31
 171 0044 029A     		ldr	r2, [sp, #8]
 172              	.LBE7:
 131:Core/Src/main.c ****   /** Initializes the RCC Oscillators according to the specified parameters
 173              		.loc 1 131 3 view .LVU32
 135:Core/Src/main.c ****   RCC_OscInitStruct.HSIState = RCC_HSI_ON;
 174              		.loc 1 135 3 view .LVU33
 135:Core/Src/main.c ****   RCC_OscInitStruct.HSIState = RCC_HSI_ON;
ARM GAS  /tmp/ccKQuDtw.s 			page 10


 175              		.loc 1 135 36 is_stmt 0 view .LVU34
 176 0046 0222     		movs	r2, #2
 177 0048 0892     		str	r2, [sp, #32]
 136:Core/Src/main.c ****   RCC_OscInitStruct.HSICalibrationValue = RCC_HSICALIBRATION_DEFAULT;
 178              		.loc 1 136 3 is_stmt 1 view .LVU35
 136:Core/Src/main.c ****   RCC_OscInitStruct.HSICalibrationValue = RCC_HSICALIBRATION_DEFAULT;
 179              		.loc 1 136 30 is_stmt 0 view .LVU36
 180 004a 0121     		movs	r1, #1
 181 004c 0B91     		str	r1, [sp, #44]
 137:Core/Src/main.c ****   RCC_OscInitStruct.PLL.PLLState = RCC_PLL_ON;
 182              		.loc 1 137 3 is_stmt 1 view .LVU37
 137:Core/Src/main.c ****   RCC_OscInitStruct.PLL.PLLState = RCC_PLL_ON;
 183              		.loc 1 137 41 is_stmt 0 view .LVU38
 184 004e 1021     		movs	r1, #16
 185 0050 0C91     		str	r1, [sp, #48]
 138:Core/Src/main.c ****   RCC_OscInitStruct.PLL.PLLSource = RCC_PLLSOURCE_HSI;
 186              		.loc 1 138 3 is_stmt 1 view .LVU39
 138:Core/Src/main.c ****   RCC_OscInitStruct.PLL.PLLSource = RCC_PLLSOURCE_HSI;
 187              		.loc 1 138 34 is_stmt 0 view .LVU40
 188 0052 0E92     		str	r2, [sp, #56]
 139:Core/Src/main.c ****   RCC_OscInitStruct.PLL.PLLM = 8;
 189              		.loc 1 139 3 is_stmt 1 view .LVU41
 139:Core/Src/main.c ****   RCC_OscInitStruct.PLL.PLLM = 8;
 190              		.loc 1 139 35 is_stmt 0 view .LVU42
 191 0054 0F93     		str	r3, [sp, #60]
 140:Core/Src/main.c ****   RCC_OscInitStruct.PLL.PLLN = 168;
 192              		.loc 1 140 3 is_stmt 1 view .LVU43
 140:Core/Src/main.c ****   RCC_OscInitStruct.PLL.PLLN = 168;
 193              		.loc 1 140 30 is_stmt 0 view .LVU44
 194 0056 0823     		movs	r3, #8
 195 0058 1093     		str	r3, [sp, #64]
 141:Core/Src/main.c ****   RCC_OscInitStruct.PLL.PLLP = RCC_PLLP_DIV2;
 196              		.loc 1 141 3 is_stmt 1 view .LVU45
 141:Core/Src/main.c ****   RCC_OscInitStruct.PLL.PLLP = RCC_PLLP_DIV2;
 197              		.loc 1 141 30 is_stmt 0 view .LVU46
 198 005a A823     		movs	r3, #168
 199 005c 1193     		str	r3, [sp, #68]
 142:Core/Src/main.c ****   RCC_OscInitStruct.PLL.PLLQ = 4;
 200              		.loc 1 142 3 is_stmt 1 view .LVU47
 142:Core/Src/main.c ****   RCC_OscInitStruct.PLL.PLLQ = 4;
 201              		.loc 1 142 30 is_stmt 0 view .LVU48
 202 005e 1292     		str	r2, [sp, #72]
 143:Core/Src/main.c ****   if (HAL_RCC_OscConfig(&RCC_OscInitStruct) != HAL_OK)
 203              		.loc 1 143 3 is_stmt 1 view .LVU49
 143:Core/Src/main.c ****   if (HAL_RCC_OscConfig(&RCC_OscInitStruct) != HAL_OK)
 204              		.loc 1 143 30 is_stmt 0 view .LVU50
 205 0060 0423     		movs	r3, #4
 206 0062 1393     		str	r3, [sp, #76]
 144:Core/Src/main.c ****   {
 207              		.loc 1 144 3 is_stmt 1 view .LVU51
 144:Core/Src/main.c ****   {
 208              		.loc 1 144 7 is_stmt 0 view .LVU52
 209 0064 08A8     		add	r0, sp, #32
 210 0066 FFF7FEFF 		bl	HAL_RCC_OscConfig
 211              	.LVL6:
 144:Core/Src/main.c ****   {
 212              		.loc 1 144 6 view .LVU53
ARM GAS  /tmp/ccKQuDtw.s 			page 11


 213 006a 98B9     		cbnz	r0, .L11
 150:Core/Src/main.c ****                               |RCC_CLOCKTYPE_PCLK1|RCC_CLOCKTYPE_PCLK2;
 214              		.loc 1 150 3 is_stmt 1 view .LVU54
 150:Core/Src/main.c ****                               |RCC_CLOCKTYPE_PCLK1|RCC_CLOCKTYPE_PCLK2;
 215              		.loc 1 150 31 is_stmt 0 view .LVU55
 216 006c 0F23     		movs	r3, #15
 217 006e 0393     		str	r3, [sp, #12]
 152:Core/Src/main.c ****   RCC_ClkInitStruct.AHBCLKDivider = RCC_SYSCLK_DIV1;
 218              		.loc 1 152 3 is_stmt 1 view .LVU56
 152:Core/Src/main.c ****   RCC_ClkInitStruct.AHBCLKDivider = RCC_SYSCLK_DIV1;
 219              		.loc 1 152 34 is_stmt 0 view .LVU57
 220 0070 0223     		movs	r3, #2
 221 0072 0493     		str	r3, [sp, #16]
 153:Core/Src/main.c ****   RCC_ClkInitStruct.APB1CLKDivider = RCC_HCLK_DIV4;
 222              		.loc 1 153 3 is_stmt 1 view .LVU58
 153:Core/Src/main.c ****   RCC_ClkInitStruct.APB1CLKDivider = RCC_HCLK_DIV4;
 223              		.loc 1 153 35 is_stmt 0 view .LVU59
 224 0074 0023     		movs	r3, #0
 225 0076 0593     		str	r3, [sp, #20]
 154:Core/Src/main.c ****   RCC_ClkInitStruct.APB2CLKDivider = RCC_HCLK_DIV2;
 226              		.loc 1 154 3 is_stmt 1 view .LVU60
 154:Core/Src/main.c ****   RCC_ClkInitStruct.APB2CLKDivider = RCC_HCLK_DIV2;
 227              		.loc 1 154 36 is_stmt 0 view .LVU61
 228 0078 4FF4A053 		mov	r3, #5120
 229 007c 0693     		str	r3, [sp, #24]
 155:Core/Src/main.c **** 
 230              		.loc 1 155 3 is_stmt 1 view .LVU62
 155:Core/Src/main.c **** 
 231              		.loc 1 155 36 is_stmt 0 view .LVU63
 232 007e 4FF48053 		mov	r3, #4096
 233 0082 0793     		str	r3, [sp, #28]
 157:Core/Src/main.c ****   {
 234              		.loc 1 157 3 is_stmt 1 view .LVU64
 157:Core/Src/main.c ****   {
 235              		.loc 1 157 7 is_stmt 0 view .LVU65
 236 0084 0521     		movs	r1, #5
 237 0086 03A8     		add	r0, sp, #12
 238 0088 FFF7FEFF 		bl	HAL_RCC_ClockConfig
 239              	.LVL7:
 157:Core/Src/main.c ****   {
 240              		.loc 1 157 6 view .LVU66
 241 008c 20B9     		cbnz	r0, .L12
 161:Core/Src/main.c **** 
 242              		.loc 1 161 1 view .LVU67
 243 008e 15B0     		add	sp, sp, #84
 244              	.LCFI3:
 245              		.cfi_remember_state
 246              		.cfi_def_cfa_offset 4
 247              		@ sp needed
 248 0090 5DF804FB 		ldr	pc, [sp], #4
 249              	.L11:
 250              	.LCFI4:
 251              		.cfi_restore_state
 146:Core/Src/main.c ****   }
 252              		.loc 1 146 5 is_stmt 1 view .LVU68
 253 0094 FFF7FEFF 		bl	Error_Handler
 254              	.LVL8:
ARM GAS  /tmp/ccKQuDtw.s 			page 12


 255              	.L12:
 159:Core/Src/main.c ****   }
 256              		.loc 1 159 5 view .LVU69
 257 0098 FFF7FEFF 		bl	Error_Handler
 258              	.LVL9:
 259              	.L14:
 260              		.align	2
 261              	.L13:
 262 009c 00380240 		.word	1073887232
 263 00a0 00700040 		.word	1073770496
 264              		.cfi_endproc
 265              	.LFE134:
 267              		.section	.rodata.main.str1.4,"aMS",%progbits,1
 268              		.align	2
 269              	.LC0:
 270 0000 68656C6C 		.ascii	"hello world \000"
 270      6F20776F 
 270      726C6420 
 270      00
 271 000d 000000   		.align	2
 272              	.LC1:
 273 0010 3D3D2564 		.ascii	"==%d \012\000"
 273      200A00
 274              		.section	.text.main,"ax",%progbits
 275              		.align	1
 276              		.global	main
 277              		.syntax unified
 278              		.thumb
 279              		.thumb_func
 280              		.fpu fpv4-sp-d16
 282              	main:
 283              	.LFB133:
  67:Core/Src/main.c ****   /* USER CODE BEGIN 1 */
 284              		.loc 1 67 1 view -0
 285              		.cfi_startproc
 286              		@ args = 0, pretend = 0, frame = 0
 287              		@ frame_needed = 0, uses_anonymous_args = 0
 288 0000 10B5     		push	{r4, lr}
 289              	.LCFI5:
 290              		.cfi_def_cfa_offset 8
 291              		.cfi_offset 4, -8
 292              		.cfi_offset 14, -4
  69:Core/Src/main.c ****   /* USER CODE END 1 */
 293              		.loc 1 69 1 view .LVU71
 294              	.LVL10:
  75:Core/Src/main.c **** 
 295              		.loc 1 75 3 view .LVU72
 296 0002 FFF7FEFF 		bl	HAL_Init
 297              	.LVL11:
  82:Core/Src/main.c **** 
 298              		.loc 1 82 3 view .LVU73
 299 0006 FFF7FEFF 		bl	SystemClock_Config
 300              	.LVL12:
  89:Core/Src/main.c ****   MX_USART1_UART_Init();
 301              		.loc 1 89 3 view .LVU74
 302 000a FFF7FEFF 		bl	MX_GPIO_Init
 303              	.LVL13:
ARM GAS  /tmp/ccKQuDtw.s 			page 13


  90:Core/Src/main.c ****   /* USER CODE BEGIN 2 */
 304              		.loc 1 90 3 view .LVU75
 305 000e FFF7FEFF 		bl	MX_USART1_UART_Init
 306              	.LVL14:
  92:Core/Src/main.c ****     HAL_GPIO_TogglePin(GPIOG, GPIO_PIN_13);
 307              		.loc 1 92 1 view .LVU76
 308 0012 1048     		ldr	r0, .L18
 309 0014 FFF7FEFF 		bl	puts
 310              	.LVL15:
  93:Core/Src/main.c ****     HAL_GPIO_TogglePin(GPIOG, GPIO_PIN_14);
 311              		.loc 1 93 5 view .LVU77
 312 0018 0F4C     		ldr	r4, .L18+4
 313 001a 4FF40051 		mov	r1, #8192
 314 001e 2046     		mov	r0, r4
 315 0020 FFF7FEFF 		bl	HAL_GPIO_TogglePin
 316              	.LVL16:
  94:Core/Src/main.c ****   /* USER CODE END 2 */
 317              		.loc 1 94 5 view .LVU78
 318 0024 4FF48041 		mov	r1, #16384
 319 0028 2046     		mov	r0, r4
 320 002a FFF7FEFF 		bl	HAL_GPIO_TogglePin
 321              	.LVL17:
 322              	.L16:
  99:Core/Src/main.c ****   {
 323              		.loc 1 99 3 discriminator 1 view .LVU79
 104:Core/Src/main.c **** 
 324              		.loc 1 104 1 discriminator 1 view .LVU80
 325 002e 0021     		movs	r1, #0
 326 0030 0A48     		ldr	r0, .L18+8
 327 0032 FFF7FEFF 		bl	printf
 328              	.LVL18:
 108:Core/Src/main.c ****     HAL_GPIO_TogglePin(GPIOG, GPIO_PIN_14);
 329              		.loc 1 108 5 discriminator 1 view .LVU81
 330 0036 084C     		ldr	r4, .L18+4
 331 0038 4FF40051 		mov	r1, #8192
 332 003c 2046     		mov	r0, r4
 333 003e FFF7FEFF 		bl	HAL_GPIO_TogglePin
 334              	.LVL19:
 109:Core/Src/main.c ****     HAL_Delay(100);
 335              		.loc 1 109 5 discriminator 1 view .LVU82
 336 0042 4FF48041 		mov	r1, #16384
 337 0046 2046     		mov	r0, r4
 338 0048 FFF7FEFF 		bl	HAL_GPIO_TogglePin
 339              	.LVL20:
 110:Core/Src/main.c **** 
 340              		.loc 1 110 5 discriminator 1 view .LVU83
 341 004c 6420     		movs	r0, #100
 342 004e FFF7FEFF 		bl	HAL_Delay
 343              	.LVL21:
  99:Core/Src/main.c ****   {
 344              		.loc 1 99 9 discriminator 1 view .LVU84
 345 0052 ECE7     		b	.L16
 346              	.L19:
 347              		.align	2
 348              	.L18:
 349 0054 00000000 		.word	.LC0
 350 0058 00180240 		.word	1073879040
ARM GAS  /tmp/ccKQuDtw.s 			page 14


 351 005c 10000000 		.word	.LC1
 352              		.cfi_endproc
 353              	.LFE133:
 355              		.text
 356              	.Letext0:
 357              		.file 3 "/0work/environment/gcc-arm-none-eabi-10-2020-q4-major/arm-none-eabi/include/machine/_defa
 358              		.file 4 "/0work/environment/gcc-arm-none-eabi-10-2020-q4-major/arm-none-eabi/include/sys/_stdint.h
 359              		.file 5 "Drivers/CMSIS/Device/ST/STM32F4xx/Include/stm32f429xx.h"
 360              		.file 6 "Drivers/STM32F4xx_HAL_Driver/Inc/stm32f4xx_hal_def.h"
 361              		.file 7 "Drivers/STM32F4xx_HAL_Driver/Inc/stm32f4xx_hal_rcc_ex.h"
 362              		.file 8 "Drivers/STM32F4xx_HAL_Driver/Inc/stm32f4xx_hal_rcc.h"
 363              		.file 9 "Drivers/STM32F4xx_HAL_Driver/Inc/stm32f4xx_hal_dma.h"
 364              		.file 10 "Drivers/STM32F4xx_HAL_Driver/Inc/stm32f4xx_hal_uart.h"
 365              		.file 11 "Drivers/STM32F4xx_HAL_Driver/Inc/stm32f4xx_hal.h"
 366              		.file 12 "Core/Inc/gpio.h"
 367              		.file 13 "Core/Inc/usart.h"
 368              		.file 14 "<built-in>"
 369              		.file 15 "Drivers/STM32F4xx_HAL_Driver/Inc/stm32f4xx_hal_gpio.h"
 370              		.file 16 "/0work/environment/gcc-arm-none-eabi-10-2020-q4-major/arm-none-eabi/include/stdio.h"
ARM GAS  /tmp/ccKQuDtw.s 			page 15


DEFINED SYMBOLS
                            *ABS*:0000000000000000 main.c
     /tmp/ccKQuDtw.s:18     .text._write:0000000000000000 $t
     /tmp/ccKQuDtw.s:26     .text._write:0000000000000000 _write
     /tmp/ccKQuDtw.s:61     .text._write:0000000000000014 $d
     /tmp/ccKQuDtw.s:66     .text.Error_Handler:0000000000000000 $t
     /tmp/ccKQuDtw.s:73     .text.Error_Handler:0000000000000000 Error_Handler
     /tmp/ccKQuDtw.s:105    .text.SystemClock_Config:0000000000000000 $t
     /tmp/ccKQuDtw.s:112    .text.SystemClock_Config:0000000000000000 SystemClock_Config
     /tmp/ccKQuDtw.s:262    .text.SystemClock_Config:000000000000009c $d
     /tmp/ccKQuDtw.s:268    .rodata.main.str1.4:0000000000000000 $d
     /tmp/ccKQuDtw.s:275    .text.main:0000000000000000 $t
     /tmp/ccKQuDtw.s:282    .text.main:0000000000000000 main
     /tmp/ccKQuDtw.s:349    .text.main:0000000000000054 $d

UNDEFINED SYMBOLS
HAL_UART_Transmit
huart1
memset
HAL_RCC_OscConfig
HAL_RCC_ClockConfig
HAL_Init
MX_GPIO_Init
MX_USART1_UART_Init
puts
HAL_GPIO_TogglePin
printf
HAL_Delay
