:020000040800F2
:1000000000000320FD140008DD070008DF070008DA
:10001000E1070008E3070008E5070008000000000A
:10002000000000000000000000000000E7070008DA
:10003000E907000800000000EB070008ED070008D2
:100040004D1500084D1500084D1500084D15000808
:100050004D1500084D1500084D1500084D150008F8
:100060004D1500084D1500084D1500084D150008E8
:100070004D1500084D1500084D1500084D150008D8
:100080004D1500084D1500084D1500084D150008C8
:100090004D1500084D1500084D1500084D150008B8
:1000A0004D1500084D1500084D1500084D150008A8
:1000B0004D1500084D1500084D1500084D15000898
:1000C0004D1500084D1500084D1500084D15000888
:1000D0004D1500084D1500084D1500084D15000878
:1000E0004D1500084D1500084D1500084D15000868
:1000F0004D1500084D1500084D1500084D15000858
:100100004D1500084D1500084D1500084D15000847
:100110004D1500084D1500084D1500084D15000837
:100120004D1500084D1500084D1500084D15000827
:100130004D1500084D1500084D1500084D15000817
:100140004D1500084D1500084D1500084D15000807
:100150004D1500084D1500084D1500084D150008F7
:100160004D1500084D1500084D1500084D150008E7
:100170004D1500084D1500084D1500080000000041
:100180004D1500084D1500084D1500084D150008C7
:100190004D1500084D1500084D1500084D150008B7
:0C01A0004D1500084D1500084D15000815
:1001B00010B5054C237833B9044B13B10448AFF3A1
:1001C00000800123237010BD70000020000000009B
:1001D000A825000808B5034B1BB103490348AFF33A
:1001E000008008BD0000000074000020A825000861
:1001F00001F0FF01102A2BDB10F0070F08D010F8D8
:10020000013B013A8B422DD010F0070F42B3F6D1DB
:10021000F0B441EA012141EA014122F007047FF0F4
:1002200000070023F0E80256083C85EA010586EA4B
:10023000010685FA47F5A3FA87F586FA47F6A5FA87
:1002400087F68EB9EED1F0BC01F0FF0102F0070293
:1002500032B110F8013B013A83EA010313B1F8D13E
:100260000020704701387047002D06BF354603381F
:10027000073815F0010F07D1013015F4807F02BF58
:10028000013015F4C03F0130F0BC0138704700BFA9
:1002900053B94AB9002908BF00281CBF4FF0FF31ED
:1002A0004FF0FF3000F074B9ADF1080C6DE904CEE9
:1002B00000F006F8DDF804E0DDE9022304B0704741
:1002C0002DE9F047089D04468E46002B4DD18A4209
:1002D000944669D9B2FA82F252B101FA02F3C2F13C
:1002E000200120FA01F10CFA02FC41EA030E9440CD
:1002F0004FEA1C48210CBEFBF8F61FFA8CF708FBEE
:1003000016E341EA034306FB07F199420AD91CEBC5
:10031000030306F1FF3080F01F81994240F21C81F7
:10032000023E63445B1AA4B2B3FBF8F008FB10333F
:1003300044EA034400FB07F7A7420AD91CEB040474
:1003400000F1FF3380F00A81A74240F20781644444
:10035000023840EA0640E41B00261DB1D4400023C9
:10036000C5E900433146BDE8F0878B4209D9002D2D
:1003700000F0EF800026C5E9000130463146BDE8B7
:10038000F087B3FA83F6002E4AD18B4202D3824221
:1003900000F2F980841A61EB030301209E46002DD0
:1003A000E0D0C5E9004EDDE702B9FFDEB2FA82F225
:1003B000002A40F09280A1EB0C014FEA1C471FFA83
:1003C0008CFE0126200CB1FBF7F307FB131140EA6A
:1003D00001410EFB03F0884208D91CEB010103F137
:1003E000FF3802D2884200F2CB804346091AA4B2F9
:1003F000B1FBF7F007FB101144EA01440EFB00FECD
:10040000A64508D91CEB040400F1FF3102D2A64531
:1004100000F2BB800846A4EB0E0440EA03409CE7D0
:10042000C6F12007B34022FA07FC4CEA030C20FA7D
:1004300007F401FA06F31C43F9404FEA1C4900FA9D
:1004400006F3B1FBF9F8200C1FFA8CFE09FB18111A
:1004500040EA014108FB0EF0884202FA06F20BD98D
:100460001CEB010108F1FF3A80F08880884240F2DD
:100470008580A8F102086144091AA4B2B1FBF9F021
:1004800009FB101144EA014100FB0EFE8E4508D91C
:100490001CEB010100F1FF346CD28E456AD90238A1
:1004A000614440EA0840A0FB0294A1EB0E01A14286
:1004B000C846A64656D353D05DB1B3EB080261EBF4
:1004C0000E0101FA07F722FA06F3F1401F43C5E9CE
:1004D000007100263146BDE8F087C2F12003D84004
:1004E0000CFA02FC21FA03F3914001434FEA1C4746
:1004F0001FFA8CFEB3FBF7F007FB10360B0C43EA38
:10050000064300FB0EF69E4204FA02F408D91CEBE7
:10051000030300F1FF382FD29E422DD902386344E5
:100520009B1B89B2B3FBF7F607FB163341EA034185
:1005300006FB0EF38B4208D91CEB010106F1FF38D4
:1005400016D28B4214D9023E6144C91A46EA0046CB
:1005500038E72E46284605E70646E3E61846F8E65D
:100560004B45A9D2B9EB020864EB0C0E0138A3E7A6
:100570004646EAE7204694E74046D1E7D0467BE787
:10058000023B614432E7304609E76444023842E7FF
:10059000704700BF10B514464FF6FF7392B2024881
:1005A00000F03FFA204610BD8C00002072B6FEE736
:1005B00000B595B03022002108A800F0EDFF00231F
:1005C0000393049305930693079301931F4A116CB9
:1005D00041F080511164126C02F080520192019A34
:1005E00002931B4A116841F440411160126802F401
:1005F00040420292029A0222089201210B9110219C
:100600000C910E920F9308231093A823119312922A
:100610000423139308A800F071FA98B90F230393E9
:1006200002230493002305934FF4A05306934FF441
:1006300080530793052103A800F0AEFC20B915B044
:100640005DF804FBFFF7B2FFFFF7B0FF0038024090
:100650000070004010B500F007FFFFF7A9FF00F0A1
:1006600029F800F067F8104801F024F80F4C4FF417
:100670000051204600F06AFE4FF48041204600F011
:1006800065FE00210A4800F08FFF084C4FF400512E
:10069000204600F05BFE4FF48041204600F056FEFD
:1006A000642000F00DFFECE7C025000800180240B0
:1006B000D025000830B589B0002403940494059433
:1006C000069407940094194B1A6B42F080021A6347
:1006D0001A6B02F080020092009A01941A6B42F0A9
:1006E00001021A631A6B02F001020192019A02944C
:1006F0001A6B42F040021A631B6B03F04003029333
:10070000029B0B4D22464FF4C041284600F018FED4
:100710004FF4C0430393012304930594069403A963
:10072000284600F00FFD09B030BD00BF0038024080
:100730000018024008B50A480A4B03604FF4E13341
:10074000436000238360C36003610C2242618361C4
:10075000C36100F037F900B908BDFFF727FFFBE7D9
:100760008C0000200010014000B589B000230393E5
:100770000493059306930793026803F1804303F5FE
:1007800088339A4202D009B05DF804FB0021019140
:1007900003F594335A6C42F010025A645A6C02F01A
:1007A00010020192019A02911A6B42F001021A633F
:1007B0001B6B03F001030293029B4FF4C06303938E
:1007C00002230493032306930723079303A90248F4
:1007D00000F0B8FCD7E700BF00000240FEE7FEE7EC
:1007E000FEE7FEE7FEE770477047704708B500F088
:1007F00055FE08BD82B0002100910B4B5A6C42F4AB
:1008000080425A645A6C02F480420092009A01912C
:100810001A6C42F080521A641B6C03F080530193EF
:10082000019B02B0704700BF0038024038B5044653
:100830000268136923F44053C1680B431361836852
:100840000269134342691343C2691A430168CB68C2
:1008500023F4164323F00C031343CB60026853695F
:1008600023F4407381690B4353610368314A934217
:1008700006D002F58062934202D000F043FC01E012
:1008800000F050FCE369B3F5004F29D000210318B4
:1008900049411B1841F10001C90041EA5371DB00D5
:1008A000181863684FEA83024FEA937341F100011D
:1008B000FFF7EEFC204DA5FB00325109642303FB3A
:1008C00011031B013233A5FB03235B0903F0F00284
:1008D00002EB011203F00F03216813448B6038BD53
:1008E0000023021843EB0301121841F10001C90073
:1008F00041EA5271D200101841F100016268921869
:100900005B41FFF7C5FC0C4DA5FB00325109642388
:1009100003FB1103DB003233A5FB03235B095A0001
:1009200002F4F87202EB011203F00703216813448A
:100930008B60D4E7001001401F85EB512DE9F8438F
:1009400005460F4616469946DDF820802C68246837
:1009500037EA04030CBF4FF0010C4FF0000CB44514
:100960002DD1B8F1FF3FF1D0B8F1000F05D000F064
:10097000A1FDA0EB09004045E8D92A6802F10C036B
:1009800053E8003F23F4D0730C3242E800310029D1
:10099000F3D12A6802F1140353E8003F23F0010366
:1009A000143242E800310029F3D1202385F83D308C
:1009B00085F83E30002385F83C30032000E000201D
:1009C000BDE8F88358B310B5044690F83D300BB33A
:1009D000242384F83D302268D36823F40053D36085
:1009E0002046FFF723FF2268136923F49043136125
:1009F0002268536923F02A0353612268D36843F4C1
:100A00000053D36000202064202384F83D3084F814
:100A10003E3010BD80F83C30FFF7A6FED8E701203D
:100A200070472DE9F04182B01E4690F83D30DBB2B0
:100A3000202B54D104460D469046002953D0002A5D
:100A400053D090F83C30012B51D0012380F83C303A
:100A500000230364212380F83D3000F02BFD07467E
:100A6000A4F82480A4F82680A368B3F5805F05D09D
:100A70004FF00008002384F83C3012E0236913B1E2
:100A80004FF00008F6E7A8460025F3E738F8023BE8
:100A90002268C3F308035360E28C92B2013A92B227
:100AA000E284E38C9BB273B100963B460022802126
:100AB0002046FFF743FFE0B9002DE7D015F8012BE2
:100AC00023685A60E8E700963B4600224021204612
:100AD000FFF734FF78B9202384F83D3000E002208E
:100AE00002B0BDE8F0810120FAE70120F8E702201A
:100AF000F6E70320F4E70320F2E70000002800F007
:100B0000E08170B582B00446036813F0010F3BD05A
:100B10009F4B9B6803F00C03042B2CD09C4B9B68D1
:100B200003F00C03082B21D06368B3F5803F4FD04E
:100B3000B3F5A02F52D0964B1A6822F480321A6077
:100B40001A6822F480221A606368002B50D000F0EB
:100B5000B1FC05468E4B1B6813F4003F14D100F026
:100B6000A9FC401B6428F5D90320B1E1884B5B68E0
:100B700013F4800FD8D0864B1B6813F4003F03D0CA
:100B80006368002B00F09F81236813F0020F54D09C
:100B90007F4B9B6813F00C0F3ED07D4B9B6803F09E
:100BA0000C03082B33D0E368002B68D0794B01226B
:100BB0001A6000F07FFC0546754B1B6813F0020FAE
:100BC00054D100F077FC401B0228F5D903207FE1C7
:100BD0006F4A136843F480331360B5E76C4B1A68AF
:100BE00042F480221A601A6842F480321A60ABE73D
:100BF00000F060FC0546664B1B6813F4003FC3D051
:100C000000F058FC401B6428F5D9032060E1604BDC
:100C10005B6813F4800FC6D15D4B1B6813F0020FA5
:100C200003D0E368012B40F05081594A136823F048
:100C3000F803216943EAC1031360236813F0080F26
:100C400042D063696BB3534B0122C3F8802E00F08E
:100C500031FC05464E4B5B6F13F0020F34D100F0B0
:100C600029FC401B0228F5D9032031E1484A1368CA
:100C700023F0F803216943EAC1031360DDE7454B24
:100C800000221A6000F016FC0546414B1B6813F069
:100C9000020FD2D000F00EFC401B0228F5D9032031
:100CA00016E13C4B0022C3F8802E00F003FC054601
:100CB000374B5B6F13F0020F06D000F0FBFB401BBD
:100CC0000228F5D9032003E1236813F0040F77D03D
:100CD0002F4B1B6C13F0805F33D1002301932C4BFF
:100CE0001A6C42F080521A641B6C03F0805301931B
:100CF000019B0125284B1B6813F4807F23D0A36838
:100D0000012B34D0052B38D0214B1A6F22F0010271
:100D10001A671A6F22F004021A67A368002B3DD0ED
:100D200000F0C8FB06461A4B1B6F13F0020F46D1AA
:100D300000F0C0FB801B41F288339842F3D90320B6
:100D4000C6E00025D6E7144A136843F480731360A5
:100D500000F0B0FB0646104B1B6813F4807FCED129
:100D600000F0A8FB801B0228F5D90320B0E0084A58
:100D7000136F43F001031367CFE7054B1A6F42F07F
:100D800004021A671A6F42F001021A67C5E700BF32
:100D900000380240000047420070004000F08AFB2B
:100DA0000646524B1B6F13F0020F08D000F082FB77
:100DB000801B41F288339842F3D9032088E0EDB9D3
:100DC000A369002B00F08380484A926802F00C026D
:100DD000082A51D0022B17D0454B00221A6600F08A
:100DE00069FB0446414B1B6813F0007F42D000F0C2
:100DF00061FB001B0228F5D9032069E03B4A136C14
:100E000023F080531364DBE7394B00221A6600F0AD
:100E100051FB0546354B1B6813F0007F06D000F0F0
:100E200049FB401B0228F5D9032051E0E369226AFF
:100E30001343626A43EA8213A26A5208013A43EA00
:100E40000243E26A43EA0263284A5360284B0122C4
:100E50001A6600F02FFB0446244B1B6813F0007F3A
:100E600006D100F027FB001B0228F5D903202FE054
:100E700000202DE000202BE0012B2BD01B4B5B68CA
:100E800003F48001E269914226D103F03F02216A16
:100E90008A4223D1616A47F6C0721A40B2EB811FC1
:100EA0001ED103F44031A26A5208013AB1EB024F5D
:100EB00018D103F07063E26AB3EB026F14D1002023
:100EC00006E001207047012002E0012000E0002040
:100ED00002B070BD0120FBE70120F9E70120F7E730
:100EE0000120F5E70120F3E70120F1E70038024097
:100EF0000000474208B5254B9B6803F00C03042B08
:100F00003FD0082B3FD1214B5A6802F03F025B686B
:100F100013F4800F12D01D4B5968C1F388111C487F
:100F20000023A1FB0001FFF7B3F9184B5B68C3F383
:100F3000014301335B00B0FBF3F025E0134B59682C
:100F4000C1F3881C4FEA4C11B1EB0C006EEB0E0E96
:100F50004FEA8E1343EA90638101091A63EB0E0393
:100F6000DB0043EA5173C90011EB0C0C43F10003A1
:100F7000990200234FEA8C2041EA9C51FFF788F93F
:100F8000D3E7034800E0034808BD00BF0038024033
:100F900040787D010024F400002800F09B8070B5AB
:100FA0000D4604464F4B1B6803F00F038B4208D2DB
:100FB000CBB24C4A1370136803F00F038B4240F01E
:100FC0008B80236813F0020F17D013F0040F04D0A6
:100FD000454A936843F4E0539360236813F0080F85
:100FE00004D0414A936843F4604393603E4A936857
:100FF00023F0F003A1680B439360236813F0010F03
:1010000032D06368012B21D09A1E012A25D9364A95
:10101000126812F0020F61D033498A6822F003028D
:1010200013438B6000F046FA06462F4B9B6803F093
:101030000C036268B3EB820F16D000F03BFA801B02
:1010400041F288339842F0D9032042E0264A1268E0
:1010500012F4003FE0D101203BE0234A126812F075
:10106000007FD9D1012034E01E4B1B6803F00F0331
:10107000AB4207D9EAB21B4B1A701B6803F00F038F
:10108000AB422DD1236813F0040F06D0164A9368A3
:1010900023F4E053E1680B439360236813F0080FD7
:1010A00007D0114A936823F46043216943EAC103DE
:1010B0009360FFF71FFF0C4B9B68C3F303130B4AAE
:1010C000D35CD8400A4B18600A4B186800F0A6F9A8
:1010D000002070BD012070470120FAE70120F8E7E9
:1010E0000120F6E7003C024000380240D825000805
:1010F0000800002004000020014B1868704700BF62
:101100000800002008B5FFF7F7FF044B9B68C3F306
:101110008223034AD35CD84008BD00BF0038024098
:10112000E825000808B5FFF7E7FF044B9B68C3F309
:101130004233034AD35CD84008BD00BF00380240A8
:10114000E825000800230F2B00F2F18070B582B073
:1011500061E085685E000324B44025EA0405CC689C
:10116000B4402C438460456825EA02054C68C4F30A
:1011700000129A402A4342605BE0DC08083450F8D1
:10118000246003F0070295000F22AA4026EA020E0F
:101190000A69AA4042EA0E0240F824205DE00922D2
:1011A00000E0002202FA0EF22A430234604D45F8B4
:1011B0002420604A14686FEA0C0224EA0C054E6889
:1011C00016F4803F01D04CEA04055A4C256064684F
:1011D00002EA04054E6816F4003F01D04CEA04050B
:1011E000544C6560A46802EA04054E6816F4801F3A
:1011F00001D04CEA04054F4CA560E46822404D68DC
:1012000015F4001F01D04CEA04024A4CE26001339D
:101210000F2B00F28A8001229A400C6804EA020C2B
:1012200032EA0404F3D14C6804F00304013C012CBD
:101230008FD94A6802F00302032A09D0C4685D000E
:101240000322AA4024EA02048A68AA402243C26018
:101250004A6802F00302022A8FD004684FEA430E64
:10126000032202FA0EF224EA02044A6802F00302A0
:1012700002FA0EF2224302604A6812F4403FC6D0DE
:10128000002201922C4A546C44F480445464526C01
:1012900002F480420192019A9C08A51C244A52F84B
:1012A000255003F003024FEA820E0F2202FA0EF2DB
:1012B00025EA0205214A90423FF473AF02F58062AD
:1012C000904222D002F58062904220D002F58062E6
:1012D00090421ED002F5806290421CD002F58062DE
:1012E00090421AD002F58062904218D002F58062D6
:1012F000904216D002F58062904214D002F58062CE
:1013000090423FF44CAF0A224CE701224AE7022206
:1013100048E7032246E7042244E7052242E7062283
:1013200040E707223EE708223CE702B070BD704765
:1013300000380140003C01400038024000000240FB
:101340000AB181617047090481617047436901EA0C
:10135000030221EA030141EA024181617047000072
:10136000074AD36823F4E0631B041B0C000200F45B
:10137000E060034343F0BF6343F40033D36070473E
:1013800000ED00E000B5194BDB68C3F30223C3F1A5
:10139000070CBCF1040F28BF4FF0040C03F1040E3E
:1013A000BEF1060F18D9033B4FF0FF3E0EFA0CFCBE
:1013B00021EA0C0199400EFA03F322EA03031943D0
:1013C00000280BDB0901C9B200F1604000F5614063
:1013D00080F800135DF804FB0023E5E700F00F0040
:1013E0000901C9B2024B1954F4E700BF00ED00E057
:1013F00014ED00E00138B0F1807F0BD24FF0E02314
:101400005861054AF02182F82310002098610722D4
:101410001A6170470120704700ED00E010B50446E6
:101420000E4B18784FF47A73B3FBF0F30C4A106844
:10143000B0FBF3F0FFF7DEFF68B90F2C01D90120F4
:101440000AE0002221464FF0FF30FFF79BFF054BDB
:101450001C60002000E0012010BD00BF0000002043
:10146000080000200400002008B50B4B1A6842F465
:1014700000721A601A6842F480621A601A6842F4B4
:1014800080721A600320FFF76BFF0F20FFF7C6FF83
:10149000FFF7B0F9002008BD003C0240034A116884
:1014A000034B1B780B441360704700BFD000002033
:1014B00000000020014B1868704700BFD0000020DA
:1014C00038B50446FFF7F6FF0546B4F1FF3F02D0FA
:1014D000044B1B781C44FFF7EDFF401BA042FAD3DE
:1014E00038BD00BF00000020034AD2F8883043F422
:1014F0007003C2F88830704700ED00E0DFF834D0A8
:101500000D480E490E4A002302E0D458C45004335B
:10151000C4188C42F9D30B4A0B4C002301E0136032
:101520000432A242FBD3FFF7DFFF00F011F8FFF710
:1015300091F8704700000320000000207000002098
:101540009826000870000020E8000020FEE7000058
:1015500070B50D4D0D4C641BA4100026A64209D198
:101560000B4D0C4C01F020F8641BA4100026A64281
:1015700005D170BD55F8043B98470136EEE755F8A4
:10158000043B98470136F2E79026000890260008B1
:10159000902600089426000802440346934200D196
:1015A000704703F8011BF9E70FB40A4B13B51C6829
:1015B00024B1A36913B9204600F05EFA05AB049A82
:1015C000A1680193204600F02DFC02B0BDE8104058
:1015D00004B070470C00002070B50E46054618B1E7
:1015E00083690BB900F048FAAB69AC6813B92846B7
:1015F00000F042FA2C4B9C4220D16C68636EDB07F2
:1016000005D4A389980502D4A06D00F0D3FAA3896C
:1016100019071DD52369DBB1013EA36816F8011F28
:10162000013BA36039BB002B38DA22460A21284649
:1016300000F048F8013011D00A2511E01B4B9C4204
:1016400001D1AC68DAE71A4B9C4208BFEC68D5E7D9
:101650002146284600F088F80028DDD04FF0FF35FD
:10166000636EDA0705D4A3899B0502D4A06D00F050
:10167000A2FA284670BD002B04DAA2699A4206DC61
:101680000A2904D023685A1C22601970C5E7224633
:10169000284600F017F80130BFD1DFE723680A259C
:1016A0005A1C22601D70DBE714260008342600084F
:1016B000F4250008024B01461868FFF78DBF00BFF4
:1016C0000C000020F8B50E461446054618B1836993
:1016D0000BB900F0D1F9214B9C422BD16C68A36966
:1016E000A360A3891A072FD523696BB323692068E8
:1016F000C01A6369F6B28342374604DC21462846A5
:1017000000F026F930BBA368013BA36023685A1C94
:1017100022601E7063690130834204D0A389DB0715
:1017200006D50A2E04D12146284600F011F988B9C1
:101730003846F8BD0A4B9C4201D1AC68CFE7094B53
:101740009C4208BFEC68CAE72146284600F00CF826
:101750000028CBD04FF0FF37EAE700BF142600087F
:1017600034260008F4250008324B70B51D68064683
:101770000C4625B1AB6913B9284600F07DF92E4B14
:101780009C420FD16C68A389B4F90C2019072CD4A2
:10179000DD0611D40923336042F04003A3814FF0EA
:1017A000FF303EE0254B9C4201D1AC68EBE7244B77
:1017B0009C4208BFEC68E6E7580712D5616B41B15F
:1017C00004F14403994202D0304600F05BFA002352
:1017D0006363A38923F02403A38100236360236947
:1017E0002360A38943F00803A38123694BB9A3892C
:1017F00003F42073B3F5007F03D02146304600F098
:1018000001FAA089B4F90C2010F001030AD00023DA
:10181000A36063695B42A361236943B910F0800050
:10182000BAD170BD810758BF6369A360F4E7002097
:10183000F7E700BF0C00002014260008342600083B
:10184000F42500088A892DE9F041054610070C4669
:1018500058D44B68002B05DC0B6C002B02DC0020FD
:10186000BDE8F081E66A002EF9D0002312F4805220
:101870002F682B6032D0606DA3895A0705D5636845
:10188000C01A636B0BB1236CC01A00230246E66AD0
:10189000216A2846B047431CA38906D129681D291F
:1018A0002CD82A4ACA40D60728D500226260D9041B
:1018B0002269226004D5421C01D12B6803B96065FE
:1018C000616B2F600029CAD004F14403994202D011
:1018D000284600F0D7F900206063C1E7216A0123A0
:1018E0002846B047411CC7D12B68002BC4D01D2B04
:1018F00001D0162B01D12F60B1E7A38943F040033B
:10190000A381ADE70F69002FA9D093070E6808BF28
:101910004B690F6018BF0023A6EB07088B60B8F176
:10192000000F9CDD216AA66A43463A462846B04726
:10193000002806DCA38943F04003A3814FF0FF3069
:101940008EE70744A8EB0008E9E700BF010040204C
:1019500038B50B6905460C4613B90025284638BD35
:1019600018B183690BB900F087F8144B9C421BD166
:101970006C68B4F90C30002BEFD0626ED00704D441
:10198000990502D4A06D00F015F928462146FFF70D
:1019900059FF636EDA070546E0D4A3899B05DDD4C1
:1019A000A06D00F008F9D9E7054B9C4201D1AC6865
:1019B000DFE7044B9C4208BFEC68DAE71426000816
:1019C00034260008F4250008002310B50446C0E9B9
:1019D0000033C0E90433836081814366C28183613F
:1019E000194608225C30FFF7D7FD054B6362054BB3
:1019F000A362054BE362054B2462236310BD00BF65
:101A0000CD230008EF230008272400084B240008FA
:101A1000014900F0AFB800BF5119000870B5682245
:101A20004D1E55430E4605F1740100F077F904464A
:101A300040B10021C0E900160C30A06005F1680239
:101A4000FFF7AAFD204670BD014800F0B3B800BF03
:101A5000D5000020014800F0AEB800BFD50000203E
:101A6000014800F0A7B800BFD6000020014800F0F0
:101A7000A2B800BFD600002010B50446FFF7F0FF63
:101A8000A3691BB1BDE81040FFF7F0BFC4E91233F2
:101A90002365134B134A1B68A262A34204BF0123B0
:101AA000A361204600F020F86060204600F01CF89A
:101AB000A060204600F018F80022E0600421606871
:101AC000FFF782FFA06801220921FFF77DFFE06890
:101AD00002221221FFF778FF0123A361D2E700BFA2
:101AE000F0250008111A0008F8B50746FFF7ACFF0B
:101AF0001E4B1E68B36913B93046FFF7BDFF483669
:101B0000D6E90134013B03D533680BB33668F7E7F8
:101B1000B4F90C50D5B9164BE36004F15800656672
:101B200000F047F8FFF796FFC4E90155C4E90455F2
:101B30002560A5610822294604F15C00FFF72CFD11
:101B4000C4E90D55C4E912552046F8BD6834D9E7FB
:101B500004213846FFF762FF044630600028D5D1E3
:101B6000FFF778FF0C233B60EEE700BFF02500088D
:101B70000100FFFF2DE9F8430646884600F14804BE
:101B80000027D4E90195B9F1010905D52468002C95
:101B9000F7D13846BDE8F883AB89012B07D9B5F9F1
:101BA0000E30013303D029463046C047074368351D
:101BB000E9E770477047704770B50E46B1F90E10EF
:101BC000002996B014461D4608DAB6F90C300022FA
:101BD0002A601A0610D44FF480630EE06A4600F0C3
:101BE0005BFC0028F1DB019A02F47042A2F500537D
:101BF0005A425A412A60EEE740230020236016B083
:101C000070BD00008B8973B59D0706460C4607D54D
:101C100004F14703236023610123636102B070BDB7
:101C200001AB6A46FFF7C8FF00990546304600F051
:101C300075F848B9B4F90C309A05EFD423F00303D2
:101C400043F00203A381E3E70D4BB362A389206055
:101C500043F08003A381009B6361019B20615BB122
:101C6000B4F90E10304600F029FC28B1A38923F006
:101C7000030343F00103A381A0890543A581CDE7B8
:101C8000111A000837B5002944D051F8043C0190DE
:101C9000002BA1F10404B8BFE41800F031FC1E4A87
:101CA0000198136833B96360146003B0BDE8304035
:101CB00000F02CBCA34208D9256861198B4201BFF2
:101CC00019685B6849192160EDE71A465B680BB13A
:101CD000A342FAD911685518A5420BD124682144B2
:101CE0005418A3421160E0D11C685B685360214422
:101CF0001160DAE702D90C230360D6E72568611981
:101D00008B4204BF19685B68636004BF4919216096
:101D10005460CAE703B030BDD8000020F8B5CD1C30
:101D200025F0030508350C2D38BF0C25002D06467F
:101D300001DBA94203D90C2333600020F8BD00F079
:101D4000DFFB21490A6814469CB9204F3B6823B940
:101D50002146304600F02AFB38602946304600F024
:101D600025FB431C23D10C233360304600F0CEFB0F
:101D7000E3E723685B1B17D40B2B03D923601C44B8
:101D8000256004E06368A2420CBF0B6053603046DC
:101D900000F0BCFB04F10B00231D20F00700C21A69
:101DA000CCD01B1AA350C9E722466468CCE7C41CF8
:101DB00024F00304A042E3D0211A304600F0F6FAE2
:101DC0000130DDD1CFE700BFD8000020DC000020CB
:101DD0009368013B002B10B4936008DA9469A34226
:101DE00001DB0A2903D15DF8044BFFF76BBC1368D4
:101DF000581C1060197008465DF8044B7047F8B520
:101E000006460F461446D518AC4201D1002007E023
:101E100014F8011B3A463046FFF7DAFF431CF3D1B2
:101E2000F8BD00002DE9F04F0D469DB014469846D0
:101E3000064618B183690BB9FFF71EFE894B9D4218
:101E40001BD175686B6ED90705D4AB899A0502D48E
:101E5000A86DFFF7AFFEAB891B0701D52B69EBB966
:101E600029463046FFF780FCC0B16B6EDC070ED50B
:101E70004FF0FF301DB0BDE8F08F7B4B9D4201D18C
:101E8000B568DFE7794B9D4208BFF568DAE7AB89B3
:101E90009805EDD4A86DFFF78EFEE9E700230993BE
:101EA00020238DF82930CDF80C803023DFF8C08155
:101EB0008DF82A304FF0010923469A4613F8012B7A
:101EC0000AB1252AF9D1BAEB040B0BD05B462246A6
:101ED00029463046FFF793FF013000F0AA80099AA7
:101EE0005A4409929AF80030002B00F0A280002397
:101EF0004FF0FF32CDE905230AF1010A049307935D
:101F00008DF853301A935446052214F8011B584893
:101F1000FEF76EF9049AD8B9D10644BF20238DF894
:101F20005330130744BF2B238DF853309AF80030F9
:101F30002A2B15D0079A544600204FF00A0C214650
:101F400011F8013B303B092B4ED9B0B1079214E098
:101F5000A0EB080309FA03F313430493A246D2E764
:101F6000039B191D1B680391002BBBBF5B4242F012
:101F7000020207930793B8BF049223782E2B0CD14B
:101F800063782A2B35D1039B1A1D1B680392002B03
:101F9000B8BF4FF0FF3302340593DFF8E4A0217897
:101FA00003225046FEF724F940B14023A0EB0A007B
:101FB00003FA00F0049B03430134049314F8011B5B
:101FC0002C488DF828100622FEF712F900283FD081
:101FD000294B1BBB039B073323F0070308330393F1
:101FE000099B3B44099367E70CFB02320C46012036
:101FF000A5E700230134059319464FF00A0C20464B
:1020000010F8012B303A092A03D9002BC5D00591CD
:10201000C3E70CFB012104460123F0E703AB009367
:102020002A46164B04A93046AFF300800746781CB9
:10203000D6D16B6ED90705D4AB899A0502D4A86DA9
:10204000FFF7B9FDAB895B063FF512AF099811E7C1
:1020500003AB00932A46094B04A9304600F080F8F0
:10206000E4E700BF1426000834260008F425000821
:10207000542600085E26000800000000FF1D00082E
:102080005A2600082DE9F047164699468A680B69DA
:10209000DDF820809342B8BF1346336091F84320A7
:1020A00007460C460AB1013333602368990642BFE4
:1020B000336802333360256815F0060506D104F154
:1020C000190AE36832689B1AAB4226DC94F8432075
:1020D000131E226818BF012392062BD404F1430279
:1020E00049463846C04701301ED02368E56832684B
:1020F00003F00603042B08BFAD1AA36822690CBFC6
:1021000025EAE57500259342C4BF9B1AED18002609
:102110001A34B5421AD1002008E00123524649463C
:102120003846C047013003D14FF0FF30BDE8F0879B
:102130000135C6E7E1185A1C302081F843002244DB
:1021400094F8451082F843100233C7E70123224672
:1021500049463846C0470130E6D00136D9E700008D
:102160002DE9FF470F7E0C9D782F914680460C4647
:102170009A4601F1430207D8622F0AD8002F00F0D7
:10218000D880582F00F0A38004F1420584F84270F3
:102190003AE0A7F16303152BF6D801A151F823F01B
:1021A000F92100080D220008892100088921000872
:1021B00089210008892100080D22000889210008D2
:1021C00089210008892100088921000819230008B5
:1021D0003D220008FB22000889210008892100080F
:1021E0003B230008892100083D22000889210008BE
:1021F00089210008032300082B681A1D1B682A6028
:1022000004F1420584F842300123A3E020682968E4
:10221000060601F104030AD50E682B60002E03DACE
:102220002D23764284F843305E480A2319E00E6875
:102230002B6010F0400F18BF36B2EFE72B68206814
:10224000191D2960010601D51E6802E04606FBD56E
:102250001E8854486F2F0CBF08230A23002184F8DE
:1022600043106568A560002DA2BF216821F004011C
:1022700021600EB9002D4DD01546B6FBF3F103FBDE
:102280001167C75D05F8017D3746BB420E46F4D99C
:10229000082B0BD12368DE0708D5236961689942B2
:1022A000DEBF302305F8013C05F1FF35521B2261EA
:1022B000CDF800A04B4603AA21464046FFF7E2FEB8
:1022C00001304CD14FF0FF3004B0BDE8F087354805
:1022D00081F845702968236851F8046B29601D0650
:1022E00014D5DF0744BF43F0200323601EB92368E1
:1022F00023F0200323601023B0E7236843F020037A
:1023000023607823284884F84530E3E7590648BF1E
:10231000B6B2E6E71546BBE72B6826686169181D6B
:10232000286035061B6801D5196002E07006FBD5F0
:102330001980002323611546BAE72B681A1D2A600D
:102340001D68626800212846FDF752FF08B1401B56
:10235000606063682361002384F84330A8E7236941
:102360002A4649464046D0470130ABD023689B07F8
:1023700013D4E068039B9842B8BF1846A4E7012332
:10238000324649464046D04701309BD00135E3688C
:1023900003995B1AAB42F2DCEBE7002504F1190666
:1023A000F5E700BF652600087626000838B5064D1B
:1023B0000023044608462B6000F0E8F8431C02D1D5
:1023C0002B6803B1236038BDE000002010B50C4637
:1023D000B1F90E1000F0A0F80028ABBF636DA3891F
:1023E0001B1823F48053ACBF6365A38110BD2DE996
:1023F000F0411F468B89DB0505460C46164605D580
:10240000B1F90E100223002200F068F8A389B4F994
:102410000E1023F48053A38132463B462846BDE884
:10242000F04100F017B810B50C46B1F90E1000F0ED
:1024300055F8431CA38915BF606523F4805343F40A
:102440008053A38118BFA38110BDB1F90E1000F015
:1024500013B8000038B5074D04460846114600225F
:102460002A601A46FEF796F8431C02D12B6803B186
:10247000236038BDE000002038B5064D0023044637
:1024800008462B6000F05AF8431C02D12B6803B1B8
:10249000236038BDE000002038B5074D0023044616
:1024A000084611462B6000F051F8431C02D12B68FE
:1024B00003B1236038BD00BFE000002038B5064DF1
:1024C0000023044608462B6000F048F8431C02D164
:1024D0002B6803B1236038BDE000002038B5074DFC
:1024E00004460846114600222A601A4600F03EF8CB
:1024F000431C02D12B6803B1236038BDE0000020EB
:102500000148FFF757BB00BFD40000200148FFF788
:1025100052BB00BFD400002038B5074D0446084622
:10252000114600222A601A4600F028F8431C02D106
:102530002B6803B1236038BDE0000020024B582215
:102540001A604FF0FF307047E0000020024B582225
:102550001A604FF0FF307047E0000020024B582215
:102560001A600020704700BFE0000020024B582294
:102570001A604FF0FF307047E0000020024B5822F5
:102580001A604FF0FF307047E0000020044A054910
:102590001368002B08BF0B4618441060184670479C
:1025A000E4000020E8000020F8B500BFF8BC08BC3B
:1025B0009E467047F8B500BFF8BC08BC9E46704701
:1025C00068656C6C6F20776F726C6420000000008F
:1025D0003D3D2564200A00000000000000000000CE
:1025E00001020304060708090000000001020304B9
:1025F00010000020000000000000000000000000AB
:1026000000000000000000000000000000000000CA
:1026100000000000000000000000000000000000BA
:1026200000000000000000000000000000000000AA
:10263000000000000000000000000000000000009A
:10264000000000000000000000000000000000008A
:1026500000000000232D302B2000686C4C006566C4
:1026600067454647003031323334353637383941E3
:1026700042434445460030313233343536373839F9
:082680006162636465660000FD
:0826880038DCFF7F01000000B7
:04269000D501000868
:04269400B101000888
:1026980001000000100000000024F40010000020D9
:1026A800000000001426000834260008F42500085D
:1026B8000000000000000000000000000000000012
:1026C8000000000000000000000000000000000002
:1026D80000000000000000000000000000000000F2
:1026E80000000000000000000000000000000000E2
:1026F80000000000000000000000000000000000D2
:04000005080014FDDE
:00000001FF
